{
  "_format": "hh-sol-artifact-1",
  "contractName": "Zakeriya",
  "sourceName": "contracts/Zakeriya.sol",
  "abi": [
    {
      "inputs": [],
      "stateMutability": "nonpayable",
      "type": "constructor"
    },
    {
      "anonymous": false,
      "inputs": [
        {
          "indexed": true,
          "internalType": "address",
          "name": "owner",
          "type": "address"
        },
        {
          "indexed": true,
          "internalType": "address",
          "name": "approved",
          "type": "address"
        },
        {
          "indexed": true,
          "internalType": "uint256",
          "name": "tokenId",
          "type": "uint256"
        }
      ],
      "name": "Approval",
      "type": "event"
    },
    {
      "anonymous": false,
      "inputs": [
        {
          "indexed": true,
          "internalType": "address",
          "name": "owner",
          "type": "address"
        },
        {
          "indexed": true,
          "internalType": "address",
          "name": "operator",
          "type": "address"
        },
        {
          "indexed": false,
          "internalType": "bool",
          "name": "approved",
          "type": "bool"
        }
      ],
      "name": "ApprovalForAll",
      "type": "event"
    },
    {
      "anonymous": false,
      "inputs": [
        {
          "indexed": false,
          "internalType": "uint256",
          "name": "_fromTokenId",
          "type": "uint256"
        },
        {
          "indexed": false,
          "internalType": "uint256",
          "name": "_toTokenId",
          "type": "uint256"
        }
      ],
      "name": "BatchMetadataUpdate",
      "type": "event"
    },
    {
      "anonymous": false,
      "inputs": [
        {
          "indexed": false,
          "internalType": "uint256",
          "name": "_tokenId",
          "type": "uint256"
        }
      ],
      "name": "MetadataUpdate",
      "type": "event"
    },
    {
      "anonymous": false,
      "inputs": [
        {
          "indexed": true,
          "internalType": "address",
          "name": "from",
          "type": "address"
        },
        {
          "indexed": true,
          "internalType": "address",
          "name": "to",
          "type": "address"
        },
        {
          "indexed": true,
          "internalType": "uint256",
          "name": "tokenId",
          "type": "uint256"
        }
      ],
      "name": "Transfer",
      "type": "event"
    },
    {
      "inputs": [
        {
          "internalType": "address",
          "name": "to",
          "type": "address"
        },
        {
          "internalType": "uint256",
          "name": "tokenId",
          "type": "uint256"
        }
      ],
      "name": "approve",
      "outputs": [],
      "stateMutability": "nonpayable",
      "type": "function"
    },
    {
      "inputs": [
        {
          "internalType": "address",
          "name": "owner",
          "type": "address"
        }
      ],
      "name": "balanceOf",
      "outputs": [
        {
          "internalType": "uint256",
          "name": "",
          "type": "uint256"
        }
      ],
      "stateMutability": "view",
      "type": "function"
    },
    {
      "inputs": [],
      "name": "current",
      "outputs": [
        {
          "internalType": "uint256",
          "name": "",
          "type": "uint256"
        }
      ],
      "stateMutability": "view",
      "type": "function"
    },
    {
      "inputs": [
        {
          "internalType": "uint256",
          "name": "tokenId",
          "type": "uint256"
        }
      ],
      "name": "getApproved",
      "outputs": [
        {
          "internalType": "address",
          "name": "",
          "type": "address"
        }
      ],
      "stateMutability": "view",
      "type": "function"
    },
    {
      "inputs": [
        {
          "internalType": "address",
          "name": "owner",
          "type": "address"
        },
        {
          "internalType": "address",
          "name": "operator",
          "type": "address"
        }
      ],
      "name": "isApprovedForAll",
      "outputs": [
        {
          "internalType": "bool",
          "name": "",
          "type": "bool"
        }
      ],
      "stateMutability": "view",
      "type": "function"
    },
    {
      "inputs": [
        {
          "internalType": "address",
          "name": "reciepant",
          "type": "address"
        },
        {
          "internalType": "string",
          "name": "uri",
          "type": "string"
        }
      ],
      "name": "minNft",
      "outputs": [
        {
          "internalType": "uint256",
          "name": "",
          "type": "uint256"
        }
      ],
      "stateMutability": "nonpayable",
      "type": "function"
    },
    {
      "inputs": [],
      "name": "name",
      "outputs": [
        {
          "internalType": "string",
          "name": "",
          "type": "string"
        }
      ],
      "stateMutability": "view",
      "type": "function"
    },
    {
      "inputs": [
        {
          "internalType": "uint256",
          "name": "tokenId",
          "type": "uint256"
        }
      ],
      "name": "ownerOf",
      "outputs": [
        {
          "internalType": "address",
          "name": "",
          "type": "address"
        }
      ],
      "stateMutability": "view",
      "type": "function"
    },
    {
      "inputs": [
        {
          "internalType": "address",
          "name": "from",
          "type": "address"
        },
        {
          "internalType": "address",
          "name": "to",
          "type": "address"
        },
        {
          "internalType": "uint256",
          "name": "tokenId",
          "type": "uint256"
        }
      ],
      "name": "safeTransferFrom",
      "outputs": [],
      "stateMutability": "nonpayable",
      "type": "function"
    },
    {
      "inputs": [
        {
          "internalType": "address",
          "name": "from",
          "type": "address"
        },
        {
          "internalType": "address",
          "name": "to",
          "type": "address"
        },
        {
          "internalType": "uint256",
          "name": "tokenId",
          "type": "uint256"
        },
        {
          "internalType": "bytes",
          "name": "data",
          "type": "bytes"
        }
      ],
      "name": "safeTransferFrom",
      "outputs": [],
      "stateMutability": "nonpayable",
      "type": "function"
    },
    {
      "inputs": [
        {
          "internalType": "address",
          "name": "operator",
          "type": "address"
        },
        {
          "internalType": "bool",
          "name": "approved",
          "type": "bool"
        }
      ],
      "name": "setApprovalForAll",
      "outputs": [],
      "stateMutability": "nonpayable",
      "type": "function"
    },
    {
      "inputs": [
        {
          "internalType": "bytes4",
          "name": "interfaceId",
          "type": "bytes4"
        }
      ],
      "name": "supportsInterface",
      "outputs": [
        {
          "internalType": "bool",
          "name": "",
          "type": "bool"
        }
      ],
      "stateMutability": "view",
      "type": "function"
    },
    {
      "inputs": [],
      "name": "symbol",
      "outputs": [
        {
          "internalType": "string",
          "name": "",
          "type": "string"
        }
      ],
      "stateMutability": "view",
      "type": "function"
    },
    {
      "inputs": [
        {
          "internalType": "uint256",
          "name": "tokenId",
          "type": "uint256"
        }
      ],
      "name": "tokenURI",
      "outputs": [
        {
          "internalType": "string",
          "name": "",
          "type": "string"
        }
      ],
      "stateMutability": "view",
      "type": "function"
    },
    {
      "inputs": [
        {
          "internalType": "address",
          "name": "from",
          "type": "address"
        },
        {
          "internalType": "address",
          "name": "to",
          "type": "address"
        },
        {
          "internalType": "uint256",
          "name": "tokenId",
          "type": "uint256"
        }
      ],
      "name": "transferFrom",
      "outputs": [],
      "stateMutability": "nonpayable",
      "type": "function"
    }
  ],
  "bytecode": "0x60806040523480156200001157600080fd5b506040518060400160405280600881526020017f5a616b65726979610000000000000000000000000000000000000000000000008152506040518060400160405280600381526020017f5a4b59000000000000000000000000000000000000000000000000000000000081525081600090816200008f919062000324565b508060019081620000a1919062000324565b5050506200040b565b600081519050919050565b7f4e487b7100000000000000000000000000000000000000000000000000000000600052604160045260246000fd5b7f4e487b7100000000000000000000000000000000000000000000000000000000600052602260045260246000fd5b600060028204905060018216806200012c57607f821691505b602082108103620001425762000141620000e4565b5b50919050565b60008190508160005260206000209050919050565b60006020601f8301049050919050565b600082821b905092915050565b600060088302620001ac7fffffffffffffffffffffffffffffffffffffffffffffffffffffffffffffffff826200016d565b620001b886836200016d565b95508019841693508086168417925050509392505050565b6000819050919050565b6000819050919050565b600062000205620001ff620001f984620001d0565b620001da565b620001d0565b9050919050565b6000819050919050565b6200022183620001e4565b6200023962000230826200020c565b8484546200017a565b825550505050565b600090565b6200025062000241565b6200025d81848462000216565b505050565b5b8181101562000285576200027960008262000246565b60018101905062000263565b5050565b601f821115620002d4576200029e8162000148565b620002a9846200015d565b81016020851015620002b9578190505b620002d1620002c8856200015d565b83018262000262565b50505b505050565b600082821c905092915050565b6000620002f960001984600802620002d9565b1980831691505092915050565b6000620003148383620002e6565b9150826002028217905092915050565b6200032f82620000aa565b67ffffffffffffffff8111156200034b576200034a620000b5565b5b62000357825462000113565b6200036482828562000289565b600060209050601f8311600181146200039c576000841562000387578287015190505b62000393858262000306565b86555062000403565b601f198416620003ac8662000148565b60005b82811015620003d657848901518255600182019150602085019450602081019050620003af565b86831015620003f65784890151620003f2601f891682620002e6565b8355505b6001600288020188555050505b505050505050565b612b3a806200041b6000396000f3fe608060405234801561001057600080fd5b50600436106100f55760003560e01c806370a0823111610097578063b88d4fde11610066578063b88d4fde14610284578063c87b56dd146102a0578063df02adc8146102d0578063e985e9c514610300576100f5565b806370a08231146101fc57806395d89b411461022c5780639fa6a6e31461024a578063a22cb46514610268576100f5565b8063095ea7b3116100d3578063095ea7b31461017857806323b872dd1461019457806342842e0e146101b05780636352211e146101cc576100f5565b806301ffc9a7146100fa57806306fdde031461012a578063081812fc14610148575b600080fd5b610114600480360381019061010f9190611a29565b610330565b6040516101219190611a71565b60405180910390f35b610132610342565b60405161013f9190611b1c565b60405180910390f35b610162600480360381019061015d9190611b74565b6103d4565b60405161016f9190611be2565b60405180910390f35b610192600480360381019061018d9190611c29565b61041a565b005b6101ae60048036038101906101a99190611c69565b610531565b005b6101ca60048036038101906101c59190611c69565b610591565b005b6101e660048036038101906101e19190611b74565b6105b1565b6040516101f39190611be2565b60405180910390f35b61021660048036038101906102119190611cbc565b610637565b6040516102239190611cf8565b60405180910390f35b6102346106ee565b6040516102419190611b1c565b60405180910390f35b610252610780565b60405161025f9190611cf8565b60405180910390f35b610282600480360381019061027d9190611d3f565b61078d565b005b61029e60048036038101906102999190611eb4565b6107a3565b005b6102ba60048036038101906102b59190611b74565b610805565b6040516102c79190611b1c565b60405180910390f35b6102ea60048036038101906102e59190611fd8565b610817565b6040516102f79190611cf8565b60405180910390f35b61031a60048036038101906103159190612034565b61084f565b6040516103279190611a71565b60405180910390f35b600061033b826108e3565b9050919050565b606060008054610351906120a3565b80601f016020809104026020016040519081016040528092919081815260200182805461037d906120a3565b80156103ca5780601f1061039f576101008083540402835291602001916103ca565b820191906000526020600020905b8154815290600101906020018083116103ad57829003601f168201915b5050505050905090565b60006103df82610944565b6004600083815260200190815260200160002060009054906101000a900473ffffffffffffffffffffffffffffffffffffffff169050919050565b6000610425826105b1565b90508073ffffffffffffffffffffffffffffffffffffffff168373ffffffffffffffffffffffffffffffffffffffff1603610495576040517f08c379a000000000000000000000000000000000000000000000000000000000815260040161048c90612146565b60405180910390fd5b8073ffffffffffffffffffffffffffffffffffffffff166104b461098f565b73ffffffffffffffffffffffffffffffffffffffff1614806104e357506104e2816104dd61098f565b61084f565b5b610522576040517f08c379a0000000000000000000000000000000000000000000000000000000008152600401610519906121d8565b60405180910390fd5b61052c8383610997565b505050565b61054261053c61098f565b82610a50565b610581576040517f08c379a00000000000000000000000000000000000000000000000000000000081526004016105789061226a565b60405180910390fd5b61058c838383610ae5565b505050565b6105ac838383604051806020016040528060008152506107a3565b505050565b6000806105bd83610dde565b9050600073ffffffffffffffffffffffffffffffffffffffff168173ffffffffffffffffffffffffffffffffffffffff160361062e576040517f08c379a0000000000000000000000000000000000000000000000000000000008152600401610625906122d6565b60405180910390fd5b80915050919050565b60008073ffffffffffffffffffffffffffffffffffffffff168273ffffffffffffffffffffffffffffffffffffffff16036106a7576040517f08c379a000000000000000000000000000000000000000000000000000000000815260040161069e90612368565b60405180910390fd5b600360008373ffffffffffffffffffffffffffffffffffffffff1673ffffffffffffffffffffffffffffffffffffffff168152602001908152602001600020549050919050565b6060600180546106fd906120a3565b80601f0160208091040260200160405190810160405280929190818152602001828054610729906120a3565b80156107765780601f1061074b57610100808354040283529160200191610776565b820191906000526020600020905b81548152906001019060200180831161075957829003601f168201915b5050505050905090565b6000600760000154905090565b61079f61079861098f565b8383610e1b565b5050565b6107b46107ae61098f565b83610a50565b6107f3576040517f08c379a00000000000000000000000000000000000000000000000000000000081526004016107ea9061226a565b60405180910390fd5b6107ff84848484610f87565b50505050565b606061081082610fe3565b9050919050565b600061082360076110f5565b600061082f600761110b565b905061083b8482611119565b6108458184611336565b8091505092915050565b6000600560008473ffffffffffffffffffffffffffffffffffffffff1673ffffffffffffffffffffffffffffffffffffffff16815260200190815260200160002060008373ffffffffffffffffffffffffffffffffffffffff1673ffffffffffffffffffffffffffffffffffffffff16815260200190815260200160002060009054906101000a900460ff16905092915050565b6000634906490660e01b7bffffffffffffffffffffffffffffffffffffffffffffffffffffffff1916827bffffffffffffffffffffffffffffffffffffffffffffffffffffffff1916148061093d575061093c826113da565b5b9050919050565b61094d816114bc565b61098c576040517f08c379a0000000000000000000000000000000000000000000000000000000008152600401610983906122d6565b60405180910390fd5b50565b600033905090565b816004600083815260200190815260200160002060006101000a81548173ffffffffffffffffffffffffffffffffffffffff021916908373ffffffffffffffffffffffffffffffffffffffff160217905550808273ffffffffffffffffffffffffffffffffffffffff16610a0a836105b1565b73ffffffffffffffffffffffffffffffffffffffff167f8c5be1e5ebec7d5bd14f71427d1e84f3dd0314c0f7b2291e5b200ac8c7c3b92560405160405180910390a45050565b600080610a5c836105b1565b90508073ffffffffffffffffffffffffffffffffffffffff168473ffffffffffffffffffffffffffffffffffffffff161480610a9e5750610a9d818561084f565b5b80610adc57508373ffffffffffffffffffffffffffffffffffffffff16610ac4846103d4565b73ffffffffffffffffffffffffffffffffffffffff16145b91505092915050565b8273ffffffffffffffffffffffffffffffffffffffff16610b05826105b1565b73ffffffffffffffffffffffffffffffffffffffff1614610b5b576040517f08c379a0000000000000000000000000000000000000000000000000000000008152600401610b52906123fa565b60405180910390fd5b600073ffffffffffffffffffffffffffffffffffffffff168273ffffffffffffffffffffffffffffffffffffffff1603610bca576040517f08c379a0000000000000000000000000000000000000000000000000000000008152600401610bc19061248c565b60405180910390fd5b610bd783838360016114fd565b8273ffffffffffffffffffffffffffffffffffffffff16610bf7826105b1565b73ffffffffffffffffffffffffffffffffffffffff1614610c4d576040517f08c379a0000000000000000000000000000000000000000000000000000000008152600401610c44906123fa565b60405180910390fd5b6004600082815260200190815260200160002060006101000a81549073ffffffffffffffffffffffffffffffffffffffff02191690556001600360008573ffffffffffffffffffffffffffffffffffffffff1673ffffffffffffffffffffffffffffffffffffffff168152602001908152602001600020600082825403925050819055506001600360008473ffffffffffffffffffffffffffffffffffffffff1673ffffffffffffffffffffffffffffffffffffffff16815260200190815260200160002060008282540192505081905550816002600083815260200190815260200160002060006101000a81548173ffffffffffffffffffffffffffffffffffffffff021916908373ffffffffffffffffffffffffffffffffffffffff160217905550808273ffffffffffffffffffffffffffffffffffffffff168473ffffffffffffffffffffffffffffffffffffffff167fddf252ad1be2c89b69c2b068fc378daa952ba7f163c4a11628f55a4df523b3ef60405160405180910390a4610dd98383836001611503565b505050565b60006002600083815260200190815260200160002060009054906101000a900473ffffffffffffffffffffffffffffffffffffffff169050919050565b8173ffffffffffffffffffffffffffffffffffffffff168373ffffffffffffffffffffffffffffffffffffffff1603610e89576040517f08c379a0000000000000000000000000000000000000000000000000000000008152600401610e80906124f8565b60405180910390fd5b80600560008573ffffffffffffffffffffffffffffffffffffffff1673ffffffffffffffffffffffffffffffffffffffff16815260200190815260200160002060008473ffffffffffffffffffffffffffffffffffffffff1673ffffffffffffffffffffffffffffffffffffffff16815260200190815260200160002060006101000a81548160ff0219169083151502179055508173ffffffffffffffffffffffffffffffffffffffff168373ffffffffffffffffffffffffffffffffffffffff167f17307eab39ab6107e8899845ad3d59bd9653f200f220920489ca2b5937696c3183604051610f7a9190611a71565b60405180910390a3505050565b610f92848484610ae5565b610f9e84848484611509565b610fdd576040517f08c379a0000000000000000000000000000000000000000000000000000000008152600401610fd49061258a565b60405180910390fd5b50505050565b6060610fee82610944565b600060066000848152602001908152602001600020805461100e906120a3565b80601f016020809104026020016040519081016040528092919081815260200182805461103a906120a3565b80156110875780601f1061105c57610100808354040283529160200191611087565b820191906000526020600020905b81548152906001019060200180831161106a57829003601f168201915b505050505090506000611098611690565b905060008151036110ad5781925050506110f0565b6000825111156110e25780826040516020016110ca9291906125e6565b604051602081830303815290604052925050506110f0565b6110eb846116a7565b925050505b919050565b6001816000016000828254019250508190555050565b600081600001549050919050565b600073ffffffffffffffffffffffffffffffffffffffff168273ffffffffffffffffffffffffffffffffffffffff1603611188576040517f08c379a000000000000000000000000000000000000000000000000000000000815260040161117f90612656565b60405180910390fd5b611191816114bc565b156111d1576040517f08c379a00000000000000000000000000000000000000000000000000000000081526004016111c8906126c2565b60405180910390fd5b6111df6000838360016114fd565b6111e8816114bc565b15611228576040517f08c379a000000000000000000000000000000000000000000000000000000000815260040161121f906126c2565b60405180910390fd5b6001600360008473ffffffffffffffffffffffffffffffffffffffff1673ffffffffffffffffffffffffffffffffffffffff16815260200190815260200160002060008282540192505081905550816002600083815260200190815260200160002060006101000a81548173ffffffffffffffffffffffffffffffffffffffff021916908373ffffffffffffffffffffffffffffffffffffffff160217905550808273ffffffffffffffffffffffffffffffffffffffff16600073ffffffffffffffffffffffffffffffffffffffff167fddf252ad1be2c89b69c2b068fc378daa952ba7f163c4a11628f55a4df523b3ef60405160405180910390a4611332600083836001611503565b5050565b61133f826114bc565b61137e576040517f08c379a000000000000000000000000000000000000000000000000000000000815260040161137590612754565b60405180910390fd5b8060066000848152602001908152602001600020908161139e9190612920565b507ff8e1a15aba9398e019f0b49df1a4fde98ee17ae345cb5f6b5e2c27f5033e8ce7826040516113ce9190611cf8565b60405180910390a15050565b60007f80ac58cd000000000000000000000000000000000000000000000000000000007bffffffffffffffffffffffffffffffffffffffffffffffffffffffff1916827bffffffffffffffffffffffffffffffffffffffffffffffffffffffff191614806114a557507f5b5e139f000000000000000000000000000000000000000000000000000000007bffffffffffffffffffffffffffffffffffffffffffffffffffffffff1916827bffffffffffffffffffffffffffffffffffffffffffffffffffffffff1916145b806114b557506114b48261170f565b5b9050919050565b60008073ffffffffffffffffffffffffffffffffffffffff166114de83610dde565b73ffffffffffffffffffffffffffffffffffffffff1614159050919050565b50505050565b50505050565b600061152a8473ffffffffffffffffffffffffffffffffffffffff16611779565b15611683578373ffffffffffffffffffffffffffffffffffffffff1663150b7a0261155361098f565b8786866040518563ffffffff1660e01b81526004016115759493929190612a47565b6020604051808303816000875af19250505080156115b157506040513d601f19601f820116820180604052508101906115ae9190612aa8565b60015b611633573d80600081146115e1576040519150601f19603f3d011682016040523d82523d6000602084013e6115e6565b606091505b50600081510361162b576040517f08c379a00000000000000000000000000000000000000000000000000000000081526004016116229061258a565b60405180910390fd5b805181602001fd5b63150b7a0260e01b7bffffffffffffffffffffffffffffffffffffffffffffffffffffffff1916817bffffffffffffffffffffffffffffffffffffffffffffffffffffffff191614915050611688565b600190505b949350505050565b606060405180602001604052806000815250905090565b60606116b282610944565b60006116bc611690565b905060008151116116dc5760405180602001604052806000815250611707565b806116e68461179c565b6040516020016116f79291906125e6565b6040516020818303038152906040525b915050919050565b60007f01ffc9a7000000000000000000000000000000000000000000000000000000007bffffffffffffffffffffffffffffffffffffffffffffffffffffffff1916827bffffffffffffffffffffffffffffffffffffffffffffffffffffffff1916149050919050565b6000808273ffffffffffffffffffffffffffffffffffffffff163b119050919050565b6060600060016117ab8461186a565b01905060008167ffffffffffffffff8111156117ca576117c9611d89565b5b6040519080825280601f01601f1916602001820160405280156117fc5781602001600182028036833780820191505090505b509050600082602001820190505b60011561185f578080600190039150507f3031323334353637383961626364656600000000000000000000000000000000600a86061a8153600a858161185357611852612ad5565b5b0494506000850361180a575b819350505050919050565b600080600090507a184f03e93ff9f4daa797ed6e38ed64bf6a1f01000000000000000083106118c8577a184f03e93ff9f4daa797ed6e38ed64bf6a1f01000000000000000083816118be576118bd612ad5565b5b0492506040810190505b6d04ee2d6d415b85acef81000000008310611905576d04ee2d6d415b85acef810000000083816118fb576118fa612ad5565b5b0492506020810190505b662386f26fc10000831061193457662386f26fc10000838161192a57611929612ad5565b5b0492506010810190505b6305f5e100831061195d576305f5e100838161195357611952612ad5565b5b0492506008810190505b612710831061198257612710838161197857611977612ad5565b5b0492506004810190505b606483106119a5576064838161199b5761199a612ad5565b5b0492506002810190505b600a83106119b4576001810190505b80915050919050565b6000604051905090565b600080fd5b600080fd5b60007fffffffff0000000000000000000000000000000000000000000000000000000082169050919050565b611a06816119d1565b8114611a1157600080fd5b50565b600081359050611a23816119fd565b92915050565b600060208284031215611a3f57611a3e6119c7565b5b6000611a4d84828501611a14565b91505092915050565b60008115159050919050565b611a6b81611a56565b82525050565b6000602082019050611a866000830184611a62565b92915050565b600081519050919050565b600082825260208201905092915050565b60005b83811015611ac6578082015181840152602081019050611aab565b60008484015250505050565b6000601f19601f8301169050919050565b6000611aee82611a8c565b611af88185611a97565b9350611b08818560208601611aa8565b611b1181611ad2565b840191505092915050565b60006020820190508181036000830152611b368184611ae3565b905092915050565b6000819050919050565b611b5181611b3e565b8114611b5c57600080fd5b50565b600081359050611b6e81611b48565b92915050565b600060208284031215611b8a57611b896119c7565b5b6000611b9884828501611b5f565b91505092915050565b600073ffffffffffffffffffffffffffffffffffffffff82169050919050565b6000611bcc82611ba1565b9050919050565b611bdc81611bc1565b82525050565b6000602082019050611bf76000830184611bd3565b92915050565b611c0681611bc1565b8114611c1157600080fd5b50565b600081359050611c2381611bfd565b92915050565b60008060408385031215611c4057611c3f6119c7565b5b6000611c4e85828601611c14565b9250506020611c5f85828601611b5f565b9150509250929050565b600080600060608486031215611c8257611c816119c7565b5b6000611c9086828701611c14565b9350506020611ca186828701611c14565b9250506040611cb286828701611b5f565b9150509250925092565b600060208284031215611cd257611cd16119c7565b5b6000611ce084828501611c14565b91505092915050565b611cf281611b3e565b82525050565b6000602082019050611d0d6000830184611ce9565b92915050565b611d1c81611a56565b8114611d2757600080fd5b50565b600081359050611d3981611d13565b92915050565b60008060408385031215611d5657611d556119c7565b5b6000611d6485828601611c14565b9250506020611d7585828601611d2a565b9150509250929050565b600080fd5b600080fd5b7f4e487b7100000000000000000000000000000000000000000000000000000000600052604160045260246000fd5b611dc182611ad2565b810181811067ffffffffffffffff82111715611de057611ddf611d89565b5b80604052505050565b6000611df36119bd565b9050611dff8282611db8565b919050565b600067ffffffffffffffff821115611e1f57611e1e611d89565b5b611e2882611ad2565b9050602081019050919050565b82818337600083830152505050565b6000611e57611e5284611e04565b611de9565b905082815260208101848484011115611e7357611e72611d84565b5b611e7e848285611e35565b509392505050565b600082601f830112611e9b57611e9a611d7f565b5b8135611eab848260208601611e44565b91505092915050565b60008060008060808587031215611ece57611ecd6119c7565b5b6000611edc87828801611c14565b9450506020611eed87828801611c14565b9350506040611efe87828801611b5f565b925050606085013567ffffffffffffffff811115611f1f57611f1e6119cc565b5b611f2b87828801611e86565b91505092959194509250565b600067ffffffffffffffff821115611f5257611f51611d89565b5b611f5b82611ad2565b9050602081019050919050565b6000611f7b611f7684611f37565b611de9565b905082815260208101848484011115611f9757611f96611d84565b5b611fa2848285611e35565b509392505050565b600082601f830112611fbf57611fbe611d7f565b5b8135611fcf848260208601611f68565b91505092915050565b60008060408385031215611fef57611fee6119c7565b5b6000611ffd85828601611c14565b925050602083013567ffffffffffffffff81111561201e5761201d6119cc565b5b61202a85828601611faa565b9150509250929050565b6000806040838503121561204b5761204a6119c7565b5b600061205985828601611c14565b925050602061206a85828601611c14565b9150509250929050565b7f4e487b7100000000000000000000000000000000000000000000000000000000600052602260045260246000fd5b600060028204905060018216806120bb57607f821691505b6020821081036120ce576120cd612074565b5b50919050565b7f4552433732313a20617070726f76616c20746f2063757272656e74206f776e6560008201527f7200000000000000000000000000000000000000000000000000000000000000602082015250565b6000612130602183611a97565b915061213b826120d4565b604082019050919050565b6000602082019050818103600083015261215f81612123565b9050919050565b7f4552433732313a20617070726f76652063616c6c6572206973206e6f7420746f60008201527f6b656e206f776e6572206f7220617070726f76656420666f7220616c6c000000602082015250565b60006121c2603d83611a97565b91506121cd82612166565b604082019050919050565b600060208201905081810360008301526121f1816121b5565b9050919050565b7f4552433732313a2063616c6c6572206973206e6f7420746f6b656e206f776e6560008201527f72206f7220617070726f76656400000000000000000000000000000000000000602082015250565b6000612254602d83611a97565b915061225f826121f8565b604082019050919050565b6000602082019050818103600083015261228381612247565b9050919050565b7f4552433732313a20696e76616c696420746f6b656e2049440000000000000000600082015250565b60006122c0601883611a97565b91506122cb8261228a565b602082019050919050565b600060208201905081810360008301526122ef816122b3565b9050919050565b7f4552433732313a2061646472657373207a65726f206973206e6f74206120766160008201527f6c6964206f776e65720000000000000000000000000000000000000000000000602082015250565b6000612352602983611a97565b915061235d826122f6565b604082019050919050565b6000602082019050818103600083015261238181612345565b9050919050565b7f4552433732313a207472616e736665722066726f6d20696e636f72726563742060008201527f6f776e6572000000000000000000000000000000000000000000000000000000602082015250565b60006123e4602583611a97565b91506123ef82612388565b604082019050919050565b60006020820190508181036000830152612413816123d7565b9050919050565b7f4552433732313a207472616e7366657220746f20746865207a65726f2061646460008201527f7265737300000000000000000000000000000000000000000000000000000000602082015250565b6000612476602483611a97565b91506124818261241a565b604082019050919050565b600060208201905081810360008301526124a581612469565b9050919050565b7f4552433732313a20617070726f766520746f2063616c6c657200000000000000600082015250565b60006124e2601983611a97565b91506124ed826124ac565b602082019050919050565b60006020820190508181036000830152612511816124d5565b9050919050565b7f4552433732313a207472616e7366657220746f206e6f6e20455243373231526560008201527f63656976657220696d706c656d656e7465720000000000000000000000000000602082015250565b6000612574603283611a97565b915061257f82612518565b604082019050919050565b600060208201905081810360008301526125a381612567565b9050919050565b600081905092915050565b60006125c082611a8c565b6125ca81856125aa565b93506125da818560208601611aa8565b80840191505092915050565b60006125f282856125b5565b91506125fe82846125b5565b91508190509392505050565b7f4552433732313a206d696e7420746f20746865207a65726f2061646472657373600082015250565b6000612640602083611a97565b915061264b8261260a565b602082019050919050565b6000602082019050818103600083015261266f81612633565b9050919050565b7f4552433732313a20746f6b656e20616c7265616479206d696e74656400000000600082015250565b60006126ac601c83611a97565b91506126b782612676565b602082019050919050565b600060208201905081810360008301526126db8161269f565b9050919050565b7f45524337323155524953746f726167653a2055524920736574206f66206e6f6e60008201527f6578697374656e7420746f6b656e000000000000000000000000000000000000602082015250565b600061273e602e83611a97565b9150612749826126e2565b604082019050919050565b6000602082019050818103600083015261276d81612731565b9050919050565b60008190508160005260206000209050919050565b60006020601f8301049050919050565b600082821b905092915050565b6000600883026127d67fffffffffffffffffffffffffffffffffffffffffffffffffffffffffffffffff82612799565b6127e08683612799565b95508019841693508086168417925050509392505050565b6000819050919050565b600061281d61281861281384611b3e565b6127f8565b611b3e565b9050919050565b6000819050919050565b61283783612802565b61284b61284382612824565b8484546127a6565b825550505050565b600090565b612860612853565b61286b81848461282e565b505050565b5b8181101561288f57612884600082612858565b600181019050612871565b5050565b601f8211156128d4576128a581612774565b6128ae84612789565b810160208510156128bd578190505b6128d16128c985612789565b830182612870565b50505b505050565b600082821c905092915050565b60006128f7600019846008026128d9565b1980831691505092915050565b600061291083836128e6565b9150826002028217905092915050565b61292982611a8c565b67ffffffffffffffff81111561294257612941611d89565b5b61294c82546120a3565b612957828285612893565b600060209050601f83116001811461298a5760008415612978578287015190505b6129828582612904565b8655506129ea565b601f19841661299886612774565b60005b828110156129c05784890151825560018201915060208501945060208101905061299b565b868310156129dd57848901516129d9601f8916826128e6565b8355505b6001600288020188555050505b505050505050565b600081519050919050565b600082825260208201905092915050565b6000612a19826129f2565b612a2381856129fd565b9350612a33818560208601611aa8565b612a3c81611ad2565b840191505092915050565b6000608082019050612a5c6000830187611bd3565b612a696020830186611bd3565b612a766040830185611ce9565b8181036060830152612a888184612a0e565b905095945050505050565b600081519050612aa2816119fd565b92915050565b600060208284031215612abe57612abd6119c7565b5b6000612acc84828501612a93565b91505092915050565b7f4e487b7100000000000000000000000000000000000000000000000000000000600052601260045260246000fdfea26469706673582212204bac6ef5719f2381498aaf07ed65c8a16fb7eb6ad077f97a94efa0d344c6b75164736f6c63430008130033",
  "linkReferences": {},
  "deployedLinkReferences": {}
}