{
  "_format": "hh-sol-artifact-1",
  "contractName": "Zakeriya",
  "sourceName": "contracts/Zakeriya.sol",
  "abi": [
    {
      "inputs": [],
      "stateMutability": "nonpayable",
      "type": "constructor"
    },
    {
      "anonymous": false,
      "inputs": [
        {
          "indexed": true,
          "internalType": "address",
          "name": "owner",
          "type": "address"
        },
        {
          "indexed": true,
          "internalType": "address",
          "name": "approved",
          "type": "address"
        },
        {
          "indexed": true,
          "internalType": "uint256",
          "name": "tokenId",
          "type": "uint256"
        }
      ],
      "name": "Approval",
      "type": "event"
    },
    {
      "anonymous": false,
      "inputs": [
        {
          "indexed": true,
          "internalType": "address",
          "name": "owner",
          "type": "address"
        },
        {
          "indexed": true,
          "internalType": "address",
          "name": "operator",
          "type": "address"
        },
        {
          "indexed": false,
          "internalType": "bool",
          "name": "approved",
          "type": "bool"
        }
      ],
      "name": "ApprovalForAll",
      "type": "event"
    },
    {
      "anonymous": false,
      "inputs": [
        {
          "indexed": false,
          "internalType": "uint256",
          "name": "_fromTokenId",
          "type": "uint256"
        },
        {
          "indexed": false,
          "internalType": "uint256",
          "name": "_toTokenId",
          "type": "uint256"
        }
      ],
      "name": "BatchMetadataUpdate",
      "type": "event"
    },
    {
      "anonymous": false,
      "inputs": [
        {
          "indexed": false,
          "internalType": "uint256",
          "name": "_tokenId",
          "type": "uint256"
        }
      ],
      "name": "MetadataUpdate",
      "type": "event"
    },
    {
      "anonymous": false,
      "inputs": [
        {
          "indexed": true,
          "internalType": "address",
          "name": "from",
          "type": "address"
        },
        {
          "indexed": true,
          "internalType": "address",
          "name": "to",
          "type": "address"
        },
        {
          "indexed": true,
          "internalType": "uint256",
          "name": "tokenId",
          "type": "uint256"
        }
      ],
      "name": "Transfer",
      "type": "event"
    },
    {
      "inputs": [
        {
          "internalType": "address",
          "name": "to",
          "type": "address"
        },
        {
          "internalType": "uint256",
          "name": "tokenId",
          "type": "uint256"
        }
      ],
      "name": "approve",
      "outputs": [],
      "stateMutability": "nonpayable",
      "type": "function"
    },
    {
      "inputs": [
        {
          "internalType": "address",
          "name": "owner",
          "type": "address"
        }
      ],
      "name": "balanceOf",
      "outputs": [
        {
          "internalType": "uint256",
          "name": "",
          "type": "uint256"
        }
      ],
      "stateMutability": "view",
      "type": "function"
    },
    {
      "inputs": [
        {
          "internalType": "uint256",
          "name": "tokenId",
          "type": "uint256"
        }
      ],
      "name": "getApproved",
      "outputs": [
        {
          "internalType": "address",
          "name": "",
          "type": "address"
        }
      ],
      "stateMutability": "view",
      "type": "function"
    },
    {
      "inputs": [
        {
          "internalType": "address",
          "name": "owner",
          "type": "address"
        },
        {
          "internalType": "address",
          "name": "operator",
          "type": "address"
        }
      ],
      "name": "isApprovedForAll",
      "outputs": [
        {
          "internalType": "bool",
          "name": "",
          "type": "bool"
        }
      ],
      "stateMutability": "view",
      "type": "function"
    },
    {
      "inputs": [
        {
          "internalType": "address",
          "name": "reciepant",
          "type": "address"
        },
        {
          "internalType": "string",
          "name": "uri",
          "type": "string"
        }
      ],
      "name": "minNft",
      "outputs": [
        {
          "internalType": "uint256",
          "name": "",
          "type": "uint256"
        }
      ],
      "stateMutability": "nonpayable",
      "type": "function"
    },
    {
      "inputs": [],
      "name": "name",
      "outputs": [
        {
          "internalType": "string",
          "name": "",
          "type": "string"
        }
      ],
      "stateMutability": "view",
      "type": "function"
    },
    {
      "inputs": [
        {
          "internalType": "uint256",
          "name": "tokenId",
          "type": "uint256"
        }
      ],
      "name": "ownerOf",
      "outputs": [
        {
          "internalType": "address",
          "name": "",
          "type": "address"
        }
      ],
      "stateMutability": "view",
      "type": "function"
    },
    {
      "inputs": [
        {
          "internalType": "address",
          "name": "from",
          "type": "address"
        },
        {
          "internalType": "address",
          "name": "to",
          "type": "address"
        },
        {
          "internalType": "uint256",
          "name": "tokenId",
          "type": "uint256"
        }
      ],
      "name": "safeTransferFrom",
      "outputs": [],
      "stateMutability": "nonpayable",
      "type": "function"
    },
    {
      "inputs": [
        {
          "internalType": "address",
          "name": "from",
          "type": "address"
        },
        {
          "internalType": "address",
          "name": "to",
          "type": "address"
        },
        {
          "internalType": "uint256",
          "name": "tokenId",
          "type": "uint256"
        },
        {
          "internalType": "bytes",
          "name": "data",
          "type": "bytes"
        }
      ],
      "name": "safeTransferFrom",
      "outputs": [],
      "stateMutability": "nonpayable",
      "type": "function"
    },
    {
      "inputs": [
        {
          "internalType": "address",
          "name": "operator",
          "type": "address"
        },
        {
          "internalType": "bool",
          "name": "approved",
          "type": "bool"
        }
      ],
      "name": "setApprovalForAll",
      "outputs": [],
      "stateMutability": "nonpayable",
      "type": "function"
    },
    {
      "inputs": [
        {
          "internalType": "bytes4",
          "name": "interfaceId",
          "type": "bytes4"
        }
      ],
      "name": "supportsInterface",
      "outputs": [
        {
          "internalType": "bool",
          "name": "",
          "type": "bool"
        }
      ],
      "stateMutability": "view",
      "type": "function"
    },
    {
      "inputs": [],
      "name": "symbol",
      "outputs": [
        {
          "internalType": "string",
          "name": "",
          "type": "string"
        }
      ],
      "stateMutability": "view",
      "type": "function"
    },
    {
      "inputs": [
        {
          "internalType": "uint256",
          "name": "tokenId",
          "type": "uint256"
        }
      ],
      "name": "tokenURI",
      "outputs": [
        {
          "internalType": "string",
          "name": "",
          "type": "string"
        }
      ],
      "stateMutability": "view",
      "type": "function"
    },
    {
      "inputs": [
        {
          "internalType": "address",
          "name": "from",
          "type": "address"
        },
        {
          "internalType": "address",
          "name": "to",
          "type": "address"
        },
        {
          "internalType": "uint256",
          "name": "tokenId",
          "type": "uint256"
        }
      ],
      "name": "transferFrom",
      "outputs": [],
      "stateMutability": "nonpayable",
      "type": "function"
    }
  ],
  "bytecode": "0x60806040523480156200001157600080fd5b506040518060400160405280600881526020017f5a616b65726979610000000000000000000000000000000000000000000000008152506040518060400160405280600381526020017f5a4b59000000000000000000000000000000000000000000000000000000000081525081600090816200008f919062000324565b508060019081620000a1919062000324565b5050506200040b565b600081519050919050565b7f4e487b7100000000000000000000000000000000000000000000000000000000600052604160045260246000fd5b7f4e487b7100000000000000000000000000000000000000000000000000000000600052602260045260246000fd5b600060028204905060018216806200012c57607f821691505b602082108103620001425762000141620000e4565b5b50919050565b60008190508160005260206000209050919050565b60006020601f8301049050919050565b600082821b905092915050565b600060088302620001ac7fffffffffffffffffffffffffffffffffffffffffffffffffffffffffffffffff826200016d565b620001b886836200016d565b95508019841693508086168417925050509392505050565b6000819050919050565b6000819050919050565b600062000205620001ff620001f984620001d0565b620001da565b620001d0565b9050919050565b6000819050919050565b6200022183620001e4565b6200023962000230826200020c565b8484546200017a565b825550505050565b600090565b6200025062000241565b6200025d81848462000216565b505050565b5b8181101562000285576200027960008262000246565b60018101905062000263565b5050565b601f821115620002d4576200029e8162000148565b620002a9846200015d565b81016020851015620002b9578190505b620002d1620002c8856200015d565b83018262000262565b50505b505050565b600082821c905092915050565b6000620002f960001984600802620002d9565b1980831691505092915050565b6000620003148383620002e6565b9150826002028217905092915050565b6200032f82620000aa565b67ffffffffffffffff8111156200034b576200034a620000b5565b5b62000357825462000113565b6200036482828562000289565b600060209050601f8311600181146200039c576000841562000387578287015190505b62000393858262000306565b86555062000403565b601f198416620003ac8662000148565b60005b82811015620003d657848901518255600182019150602085019450602081019050620003af565b86831015620003f65784890151620003f2601f891682620002e6565b8355505b6001600288020188555050505b505050505050565b612b04806200041b6000396000f3fe608060405234801561001057600080fd5b50600436106100ea5760003560e01c806370a082311161008c578063b88d4fde11610066578063b88d4fde1461025b578063c87b56dd14610277578063df02adc8146102a7578063e985e9c5146102d7576100ea565b806370a08231146101f157806395d89b4114610221578063a22cb4651461023f576100ea565b8063095ea7b3116100c8578063095ea7b31461016d57806323b872dd1461018957806342842e0e146101a55780636352211e146101c1576100ea565b806301ffc9a7146100ef57806306fdde031461011f578063081812fc1461013d575b600080fd5b610109600480360381019061010491906119f3565b610307565b6040516101169190611a3b565b60405180910390f35b610127610319565b6040516101349190611ae6565b60405180910390f35b61015760048036038101906101529190611b3e565b6103ab565b6040516101649190611bac565b60405180910390f35b61018760048036038101906101829190611bf3565b6103f1565b005b6101a3600480360381019061019e9190611c33565b610508565b005b6101bf60048036038101906101ba9190611c33565b610568565b005b6101db60048036038101906101d69190611b3e565b610588565b6040516101e89190611bac565b60405180910390f35b61020b60048036038101906102069190611c86565b61060e565b6040516102189190611cc2565b60405180910390f35b6102296106c5565b6040516102369190611ae6565b60405180910390f35b61025960048036038101906102549190611d09565b610757565b005b61027560048036038101906102709190611e7e565b61076d565b005b610291600480360381019061028c9190611b3e565b6107cf565b60405161029e9190611ae6565b60405180910390f35b6102c160048036038101906102bc9190611fa2565b6107e1565b6040516102ce9190611cc2565b60405180910390f35b6102f160048036038101906102ec9190611ffe565b610819565b6040516102fe9190611a3b565b60405180910390f35b6000610312826108ad565b9050919050565b6060600080546103289061206d565b80601f01602080910402602001604051908101604052809291908181526020018280546103549061206d565b80156103a15780601f10610376576101008083540402835291602001916103a1565b820191906000526020600020905b81548152906001019060200180831161038457829003601f168201915b5050505050905090565b60006103b68261090e565b6004600083815260200190815260200160002060009054906101000a900473ffffffffffffffffffffffffffffffffffffffff169050919050565b60006103fc82610588565b90508073ffffffffffffffffffffffffffffffffffffffff168373ffffffffffffffffffffffffffffffffffffffff160361046c576040517f08c379a000000000000000000000000000000000000000000000000000000000815260040161046390612110565b60405180910390fd5b8073ffffffffffffffffffffffffffffffffffffffff1661048b610959565b73ffffffffffffffffffffffffffffffffffffffff1614806104ba57506104b9816104b4610959565b610819565b5b6104f9576040517f08c379a00000000000000000000000000000000000000000000000000000000081526004016104f0906121a2565b60405180910390fd5b6105038383610961565b505050565b610519610513610959565b82610a1a565b610558576040517f08c379a000000000000000000000000000000000000000000000000000000000815260040161054f90612234565b60405180910390fd5b610563838383610aaf565b505050565b6105838383836040518060200160405280600081525061076d565b505050565b60008061059483610da8565b9050600073ffffffffffffffffffffffffffffffffffffffff168173ffffffffffffffffffffffffffffffffffffffff1603610605576040517f08c379a00000000000000000000000000000000000000000000000000000000081526004016105fc906122a0565b60405180910390fd5b80915050919050565b60008073ffffffffffffffffffffffffffffffffffffffff168273ffffffffffffffffffffffffffffffffffffffff160361067e576040517f08c379a000000000000000000000000000000000000000000000000000000000815260040161067590612332565b60405180910390fd5b600360008373ffffffffffffffffffffffffffffffffffffffff1673ffffffffffffffffffffffffffffffffffffffff168152602001908152602001600020549050919050565b6060600180546106d49061206d565b80601f01602080910402602001604051908101604052809291908181526020018280546107009061206d565b801561074d5780601f106107225761010080835404028352916020019161074d565b820191906000526020600020905b81548152906001019060200180831161073057829003601f168201915b5050505050905090565b610769610762610959565b8383610de5565b5050565b61077e610778610959565b83610a1a565b6107bd576040517f08c379a00000000000000000000000000000000000000000000000000000000081526004016107b490612234565b60405180910390fd5b6107c984848484610f51565b50505050565b60606107da82610fad565b9050919050565b60006107ed60076110bf565b60006107f960076110d5565b905061080584826110e3565b61080f8184611300565b8091505092915050565b6000600560008473ffffffffffffffffffffffffffffffffffffffff1673ffffffffffffffffffffffffffffffffffffffff16815260200190815260200160002060008373ffffffffffffffffffffffffffffffffffffffff1673ffffffffffffffffffffffffffffffffffffffff16815260200190815260200160002060009054906101000a900460ff16905092915050565b6000634906490660e01b7bffffffffffffffffffffffffffffffffffffffffffffffffffffffff1916827bffffffffffffffffffffffffffffffffffffffffffffffffffffffff191614806109075750610906826113a4565b5b9050919050565b61091781611486565b610956576040517f08c379a000000000000000000000000000000000000000000000000000000000815260040161094d906122a0565b60405180910390fd5b50565b600033905090565b816004600083815260200190815260200160002060006101000a81548173ffffffffffffffffffffffffffffffffffffffff021916908373ffffffffffffffffffffffffffffffffffffffff160217905550808273ffffffffffffffffffffffffffffffffffffffff166109d483610588565b73ffffffffffffffffffffffffffffffffffffffff167f8c5be1e5ebec7d5bd14f71427d1e84f3dd0314c0f7b2291e5b200ac8c7c3b92560405160405180910390a45050565b600080610a2683610588565b90508073ffffffffffffffffffffffffffffffffffffffff168473ffffffffffffffffffffffffffffffffffffffff161480610a685750610a678185610819565b5b80610aa657508373ffffffffffffffffffffffffffffffffffffffff16610a8e846103ab565b73ffffffffffffffffffffffffffffffffffffffff16145b91505092915050565b8273ffffffffffffffffffffffffffffffffffffffff16610acf82610588565b73ffffffffffffffffffffffffffffffffffffffff1614610b25576040517f08c379a0000000000000000000000000000000000000000000000000000000008152600401610b1c906123c4565b60405180910390fd5b600073ffffffffffffffffffffffffffffffffffffffff168273ffffffffffffffffffffffffffffffffffffffff1603610b94576040517f08c379a0000000000000000000000000000000000000000000000000000000008152600401610b8b90612456565b60405180910390fd5b610ba183838360016114c7565b8273ffffffffffffffffffffffffffffffffffffffff16610bc182610588565b73ffffffffffffffffffffffffffffffffffffffff1614610c17576040517f08c379a0000000000000000000000000000000000000000000000000000000008152600401610c0e906123c4565b60405180910390fd5b6004600082815260200190815260200160002060006101000a81549073ffffffffffffffffffffffffffffffffffffffff02191690556001600360008573ffffffffffffffffffffffffffffffffffffffff1673ffffffffffffffffffffffffffffffffffffffff168152602001908152602001600020600082825403925050819055506001600360008473ffffffffffffffffffffffffffffffffffffffff1673ffffffffffffffffffffffffffffffffffffffff16815260200190815260200160002060008282540192505081905550816002600083815260200190815260200160002060006101000a81548173ffffffffffffffffffffffffffffffffffffffff021916908373ffffffffffffffffffffffffffffffffffffffff160217905550808273ffffffffffffffffffffffffffffffffffffffff168473ffffffffffffffffffffffffffffffffffffffff167fddf252ad1be2c89b69c2b068fc378daa952ba7f163c4a11628f55a4df523b3ef60405160405180910390a4610da383838360016114cd565b505050565b60006002600083815260200190815260200160002060009054906101000a900473ffffffffffffffffffffffffffffffffffffffff169050919050565b8173ffffffffffffffffffffffffffffffffffffffff168373ffffffffffffffffffffffffffffffffffffffff1603610e53576040517f08c379a0000000000000000000000000000000000000000000000000000000008152600401610e4a906124c2565b60405180910390fd5b80600560008573ffffffffffffffffffffffffffffffffffffffff1673ffffffffffffffffffffffffffffffffffffffff16815260200190815260200160002060008473ffffffffffffffffffffffffffffffffffffffff1673ffffffffffffffffffffffffffffffffffffffff16815260200190815260200160002060006101000a81548160ff0219169083151502179055508173ffffffffffffffffffffffffffffffffffffffff168373ffffffffffffffffffffffffffffffffffffffff167f17307eab39ab6107e8899845ad3d59bd9653f200f220920489ca2b5937696c3183604051610f449190611a3b565b60405180910390a3505050565b610f5c848484610aaf565b610f68848484846114d3565b610fa7576040517f08c379a0000000000000000000000000000000000000000000000000000000008152600401610f9e90612554565b60405180910390fd5b50505050565b6060610fb88261090e565b6000600660008481526020019081526020016000208054610fd89061206d565b80601f01602080910402602001604051908101604052809291908181526020018280546110049061206d565b80156110515780601f1061102657610100808354040283529160200191611051565b820191906000526020600020905b81548152906001019060200180831161103457829003601f168201915b50505050509050600061106261165a565b905060008151036110775781925050506110ba565b6000825111156110ac5780826040516020016110949291906125b0565b604051602081830303815290604052925050506110ba565b6110b584611671565b925050505b919050565b6001816000016000828254019250508190555050565b600081600001549050919050565b600073ffffffffffffffffffffffffffffffffffffffff168273ffffffffffffffffffffffffffffffffffffffff1603611152576040517f08c379a000000000000000000000000000000000000000000000000000000000815260040161114990612620565b60405180910390fd5b61115b81611486565b1561119b576040517f08c379a00000000000000000000000000000000000000000000000000000000081526004016111929061268c565b60405180910390fd5b6111a96000838360016114c7565b6111b281611486565b156111f2576040517f08c379a00000000000000000000000000000000000000000000000000000000081526004016111e99061268c565b60405180910390fd5b6001600360008473ffffffffffffffffffffffffffffffffffffffff1673ffffffffffffffffffffffffffffffffffffffff16815260200190815260200160002060008282540192505081905550816002600083815260200190815260200160002060006101000a81548173ffffffffffffffffffffffffffffffffffffffff021916908373ffffffffffffffffffffffffffffffffffffffff160217905550808273ffffffffffffffffffffffffffffffffffffffff16600073ffffffffffffffffffffffffffffffffffffffff167fddf252ad1be2c89b69c2b068fc378daa952ba7f163c4a11628f55a4df523b3ef60405160405180910390a46112fc6000838360016114cd565b5050565b61130982611486565b611348576040517f08c379a000000000000000000000000000000000000000000000000000000000815260040161133f9061271e565b60405180910390fd5b8060066000848152602001908152602001600020908161136891906128ea565b507ff8e1a15aba9398e019f0b49df1a4fde98ee17ae345cb5f6b5e2c27f5033e8ce7826040516113989190611cc2565b60405180910390a15050565b60007f80ac58cd000000000000000000000000000000000000000000000000000000007bffffffffffffffffffffffffffffffffffffffffffffffffffffffff1916827bffffffffffffffffffffffffffffffffffffffffffffffffffffffff1916148061146f57507f5b5e139f000000000000000000000000000000000000000000000000000000007bffffffffffffffffffffffffffffffffffffffffffffffffffffffff1916827bffffffffffffffffffffffffffffffffffffffffffffffffffffffff1916145b8061147f575061147e826116d9565b5b9050919050565b60008073ffffffffffffffffffffffffffffffffffffffff166114a883610da8565b73ffffffffffffffffffffffffffffffffffffffff1614159050919050565b50505050565b50505050565b60006114f48473ffffffffffffffffffffffffffffffffffffffff16611743565b1561164d578373ffffffffffffffffffffffffffffffffffffffff1663150b7a0261151d610959565b8786866040518563ffffffff1660e01b815260040161153f9493929190612a11565b6020604051808303816000875af192505050801561157b57506040513d601f19601f820116820180604052508101906115789190612a72565b60015b6115fd573d80600081146115ab576040519150601f19603f3d011682016040523d82523d6000602084013e6115b0565b606091505b5060008151036115f5576040517f08c379a00000000000000000000000000000000000000000000000000000000081526004016115ec90612554565b60405180910390fd5b805181602001fd5b63150b7a0260e01b7bffffffffffffffffffffffffffffffffffffffffffffffffffffffff1916817bffffffffffffffffffffffffffffffffffffffffffffffffffffffff191614915050611652565b600190505b949350505050565b606060405180602001604052806000815250905090565b606061167c8261090e565b600061168661165a565b905060008151116116a657604051806020016040528060008152506116d1565b806116b084611766565b6040516020016116c19291906125b0565b6040516020818303038152906040525b915050919050565b60007f01ffc9a7000000000000000000000000000000000000000000000000000000007bffffffffffffffffffffffffffffffffffffffffffffffffffffffff1916827bffffffffffffffffffffffffffffffffffffffffffffffffffffffff1916149050919050565b6000808273ffffffffffffffffffffffffffffffffffffffff163b119050919050565b60606000600161177584611834565b01905060008167ffffffffffffffff81111561179457611793611d53565b5b6040519080825280601f01601f1916602001820160405280156117c65781602001600182028036833780820191505090505b509050600082602001820190505b600115611829578080600190039150507f3031323334353637383961626364656600000000000000000000000000000000600a86061a8153600a858161181d5761181c612a9f565b5b049450600085036117d4575b819350505050919050565b600080600090507a184f03e93ff9f4daa797ed6e38ed64bf6a1f0100000000000000008310611892577a184f03e93ff9f4daa797ed6e38ed64bf6a1f010000000000000000838161188857611887612a9f565b5b0492506040810190505b6d04ee2d6d415b85acef810000000083106118cf576d04ee2d6d415b85acef810000000083816118c5576118c4612a9f565b5b0492506020810190505b662386f26fc1000083106118fe57662386f26fc1000083816118f4576118f3612a9f565b5b0492506010810190505b6305f5e1008310611927576305f5e100838161191d5761191c612a9f565b5b0492506008810190505b612710831061194c57612710838161194257611941612a9f565b5b0492506004810190505b6064831061196f576064838161196557611964612a9f565b5b0492506002810190505b600a831061197e576001810190505b80915050919050565b6000604051905090565b600080fd5b600080fd5b60007fffffffff0000000000000000000000000000000000000000000000000000000082169050919050565b6119d08161199b565b81146119db57600080fd5b50565b6000813590506119ed816119c7565b92915050565b600060208284031215611a0957611a08611991565b5b6000611a17848285016119de565b91505092915050565b60008115159050919050565b611a3581611a20565b82525050565b6000602082019050611a506000830184611a2c565b92915050565b600081519050919050565b600082825260208201905092915050565b60005b83811015611a90578082015181840152602081019050611a75565b60008484015250505050565b6000601f19601f8301169050919050565b6000611ab882611a56565b611ac28185611a61565b9350611ad2818560208601611a72565b611adb81611a9c565b840191505092915050565b60006020820190508181036000830152611b008184611aad565b905092915050565b6000819050919050565b611b1b81611b08565b8114611b2657600080fd5b50565b600081359050611b3881611b12565b92915050565b600060208284031215611b5457611b53611991565b5b6000611b6284828501611b29565b91505092915050565b600073ffffffffffffffffffffffffffffffffffffffff82169050919050565b6000611b9682611b6b565b9050919050565b611ba681611b8b565b82525050565b6000602082019050611bc16000830184611b9d565b92915050565b611bd081611b8b565b8114611bdb57600080fd5b50565b600081359050611bed81611bc7565b92915050565b60008060408385031215611c0a57611c09611991565b5b6000611c1885828601611bde565b9250506020611c2985828601611b29565b9150509250929050565b600080600060608486031215611c4c57611c4b611991565b5b6000611c5a86828701611bde565b9350506020611c6b86828701611bde565b9250506040611c7c86828701611b29565b9150509250925092565b600060208284031215611c9c57611c9b611991565b5b6000611caa84828501611bde565b91505092915050565b611cbc81611b08565b82525050565b6000602082019050611cd76000830184611cb3565b92915050565b611ce681611a20565b8114611cf157600080fd5b50565b600081359050611d0381611cdd565b92915050565b60008060408385031215611d2057611d1f611991565b5b6000611d2e85828601611bde565b9250506020611d3f85828601611cf4565b9150509250929050565b600080fd5b600080fd5b7f4e487b7100000000000000000000000000000000000000000000000000000000600052604160045260246000fd5b611d8b82611a9c565b810181811067ffffffffffffffff82111715611daa57611da9611d53565b5b80604052505050565b6000611dbd611987565b9050611dc98282611d82565b919050565b600067ffffffffffffffff821115611de957611de8611d53565b5b611df282611a9c565b9050602081019050919050565b82818337600083830152505050565b6000611e21611e1c84611dce565b611db3565b905082815260208101848484011115611e3d57611e3c611d4e565b5b611e48848285611dff565b509392505050565b600082601f830112611e6557611e64611d49565b5b8135611e75848260208601611e0e565b91505092915050565b60008060008060808587031215611e9857611e97611991565b5b6000611ea687828801611bde565b9450506020611eb787828801611bde565b9350506040611ec887828801611b29565b925050606085013567ffffffffffffffff811115611ee957611ee8611996565b5b611ef587828801611e50565b91505092959194509250565b600067ffffffffffffffff821115611f1c57611f1b611d53565b5b611f2582611a9c565b9050602081019050919050565b6000611f45611f4084611f01565b611db3565b905082815260208101848484011115611f6157611f60611d4e565b5b611f6c848285611dff565b509392505050565b600082601f830112611f8957611f88611d49565b5b8135611f99848260208601611f32565b91505092915050565b60008060408385031215611fb957611fb8611991565b5b6000611fc785828601611bde565b925050602083013567ffffffffffffffff811115611fe857611fe7611996565b5b611ff485828601611f74565b9150509250929050565b6000806040838503121561201557612014611991565b5b600061202385828601611bde565b925050602061203485828601611bde565b9150509250929050565b7f4e487b7100000000000000000000000000000000000000000000000000000000600052602260045260246000fd5b6000600282049050600182168061208557607f821691505b6020821081036120985761209761203e565b5b50919050565b7f4552433732313a20617070726f76616c20746f2063757272656e74206f776e6560008201527f7200000000000000000000000000000000000000000000000000000000000000602082015250565b60006120fa602183611a61565b91506121058261209e565b604082019050919050565b60006020820190508181036000830152612129816120ed565b9050919050565b7f4552433732313a20617070726f76652063616c6c6572206973206e6f7420746f60008201527f6b656e206f776e6572206f7220617070726f76656420666f7220616c6c000000602082015250565b600061218c603d83611a61565b915061219782612130565b604082019050919050565b600060208201905081810360008301526121bb8161217f565b9050919050565b7f4552433732313a2063616c6c6572206973206e6f7420746f6b656e206f776e6560008201527f72206f7220617070726f76656400000000000000000000000000000000000000602082015250565b600061221e602d83611a61565b9150612229826121c2565b604082019050919050565b6000602082019050818103600083015261224d81612211565b9050919050565b7f4552433732313a20696e76616c696420746f6b656e2049440000000000000000600082015250565b600061228a601883611a61565b915061229582612254565b602082019050919050565b600060208201905081810360008301526122b98161227d565b9050919050565b7f4552433732313a2061646472657373207a65726f206973206e6f74206120766160008201527f6c6964206f776e65720000000000000000000000000000000000000000000000602082015250565b600061231c602983611a61565b9150612327826122c0565b604082019050919050565b6000602082019050818103600083015261234b8161230f565b9050919050565b7f4552433732313a207472616e736665722066726f6d20696e636f72726563742060008201527f6f776e6572000000000000000000000000000000000000000000000000000000602082015250565b60006123ae602583611a61565b91506123b982612352565b604082019050919050565b600060208201905081810360008301526123dd816123a1565b9050919050565b7f4552433732313a207472616e7366657220746f20746865207a65726f2061646460008201527f7265737300000000000000000000000000000000000000000000000000000000602082015250565b6000612440602483611a61565b915061244b826123e4565b604082019050919050565b6000602082019050818103600083015261246f81612433565b9050919050565b7f4552433732313a20617070726f766520746f2063616c6c657200000000000000600082015250565b60006124ac601983611a61565b91506124b782612476565b602082019050919050565b600060208201905081810360008301526124db8161249f565b9050919050565b7f4552433732313a207472616e7366657220746f206e6f6e20455243373231526560008201527f63656976657220696d706c656d656e7465720000000000000000000000000000602082015250565b600061253e603283611a61565b9150612549826124e2565b604082019050919050565b6000602082019050818103600083015261256d81612531565b9050919050565b600081905092915050565b600061258a82611a56565b6125948185612574565b93506125a4818560208601611a72565b80840191505092915050565b60006125bc828561257f565b91506125c8828461257f565b91508190509392505050565b7f4552433732313a206d696e7420746f20746865207a65726f2061646472657373600082015250565b600061260a602083611a61565b9150612615826125d4565b602082019050919050565b60006020820190508181036000830152612639816125fd565b9050919050565b7f4552433732313a20746f6b656e20616c7265616479206d696e74656400000000600082015250565b6000612676601c83611a61565b915061268182612640565b602082019050919050565b600060208201905081810360008301526126a581612669565b9050919050565b7f45524337323155524953746f726167653a2055524920736574206f66206e6f6e60008201527f6578697374656e7420746f6b656e000000000000000000000000000000000000602082015250565b6000612708602e83611a61565b9150612713826126ac565b604082019050919050565b60006020820190508181036000830152612737816126fb565b9050919050565b60008190508160005260206000209050919050565b60006020601f8301049050919050565b600082821b905092915050565b6000600883026127a07fffffffffffffffffffffffffffffffffffffffffffffffffffffffffffffffff82612763565b6127aa8683612763565b95508019841693508086168417925050509392505050565b6000819050919050565b60006127e76127e26127dd84611b08565b6127c2565b611b08565b9050919050565b6000819050919050565b612801836127cc565b61281561280d826127ee565b848454612770565b825550505050565b600090565b61282a61281d565b6128358184846127f8565b505050565b5b818110156128595761284e600082612822565b60018101905061283b565b5050565b601f82111561289e5761286f8161273e565b61287884612753565b81016020851015612887578190505b61289b61289385612753565b83018261283a565b50505b505050565b600082821c905092915050565b60006128c1600019846008026128a3565b1980831691505092915050565b60006128da83836128b0565b9150826002028217905092915050565b6128f382611a56565b67ffffffffffffffff81111561290c5761290b611d53565b5b612916825461206d565b61292182828561285d565b600060209050601f8311600181146129545760008415612942578287015190505b61294c85826128ce565b8655506129b4565b601f1984166129628661273e565b60005b8281101561298a57848901518255600182019150602085019450602081019050612965565b868310156129a757848901516129a3601f8916826128b0565b8355505b6001600288020188555050505b505050505050565b600081519050919050565b600082825260208201905092915050565b60006129e3826129bc565b6129ed81856129c7565b93506129fd818560208601611a72565b612a0681611a9c565b840191505092915050565b6000608082019050612a266000830187611b9d565b612a336020830186611b9d565b612a406040830185611cb3565b8181036060830152612a5281846129d8565b905095945050505050565b600081519050612a6c816119c7565b92915050565b600060208284031215612a8857612a87611991565b5b6000612a9684828501612a5d565b91505092915050565b7f4e487b7100000000000000000000000000000000000000000000000000000000600052601260045260246000fdfea2646970667358221220f88d40d6e4df2c856be0aa6b56e7d248f17fc193d1b7c480cf8b0386421a12aa64736f6c63430008130033",
  "linkReferences": {},
  "deployedLinkReferences": {}
}